{
	"data": {
		"bytecode": {
			"linkReferences": {},
			"object": "608060405234801561001057600080fd5b5060f98061001f6000396000f3fe608060405260043610601f5760003560e01c806329f4acb014602c576020565b5b6000602a57600080fd5b005b60326034565b005b6000730f763767aa5f04b900ad2a873acb1cf3188819bd90506000808273ffffffffffffffffffffffffffffffffffffffff16670de0b6b3a764000160405180600001905060006040518083038185875af1925050503d806000811460b4576040519150601f19603f3d011682016040523d82523d6000602084013e60b9565b606091505b509150915050505056fea264697066735822122067c15b3b27dca8adc3c38fe3f8490d2296fe3b5e83dfb9b528d1a5986684aed264736f6c63430007060033",
			"opcodes": "PUSH1 0x80 PUSH1 0x40 MSTORE CALLVALUE DUP1 ISZERO PUSH2 0x10 JUMPI PUSH1 0x0 DUP1 REVERT JUMPDEST POP PUSH1 0xF9 DUP1 PUSH2 0x1F PUSH1 0x0 CODECOPY PUSH1 0x0 RETURN INVALID PUSH1 0x80 PUSH1 0x40 MSTORE PUSH1 0x4 CALLDATASIZE LT PUSH1 0x1F JUMPI PUSH1 0x0 CALLDATALOAD PUSH1 0xE0 SHR DUP1 PUSH4 0x29F4ACB0 EQ PUSH1 0x2C JUMPI PUSH1 0x20 JUMP JUMPDEST JUMPDEST PUSH1 0x0 PUSH1 0x2A JUMPI PUSH1 0x0 DUP1 REVERT JUMPDEST STOP JUMPDEST PUSH1 0x32 PUSH1 0x34 JUMP JUMPDEST STOP JUMPDEST PUSH1 0x0 PUSH20 0xF763767AA5F04B900AD2A873ACB1CF3188819BD SWAP1 POP PUSH1 0x0 DUP1 DUP3 PUSH20 0xFFFFFFFFFFFFFFFFFFFFFFFFFFFFFFFFFFFFFFFF AND PUSH8 0xDE0B6B3A7640001 PUSH1 0x40 MLOAD DUP1 PUSH1 0x0 ADD SWAP1 POP PUSH1 0x0 PUSH1 0x40 MLOAD DUP1 DUP4 SUB DUP2 DUP6 DUP8 GAS CALL SWAP3 POP POP POP RETURNDATASIZE DUP1 PUSH1 0x0 DUP2 EQ PUSH1 0xB4 JUMPI PUSH1 0x40 MLOAD SWAP2 POP PUSH1 0x1F NOT PUSH1 0x3F RETURNDATASIZE ADD AND DUP3 ADD PUSH1 0x40 MSTORE RETURNDATASIZE DUP3 MSTORE RETURNDATASIZE PUSH1 0x0 PUSH1 0x20 DUP5 ADD RETURNDATACOPY PUSH1 0xB9 JUMP JUMPDEST PUSH1 0x60 SWAP2 POP JUMPDEST POP SWAP2 POP SWAP2 POP POP POP POP JUMP INVALID LOG2 PUSH5 0x6970667358 0x22 SLT KECCAK256 PUSH8 0xC15B3B27DCA8ADC3 0xC3 DUP16 0xE3 0xF8 0x49 0xD 0x22 SWAP7 INVALID EXTCODESIZE 0x5E DUP4 0xDF 0xB9 0xB5 0x28 0xD1 0xA5 SWAP9 PUSH7 0x84AED264736F6C PUSH4 0x43000706 STOP CALLER "
		},
		"gasEstimates": {
			"creation": {
				"codeDepositCost": "49800",
				"executionCost": "99",
				"totalCost": "49899"
			},
			"external": {
				"": "107",
				"echo()": "infinite"
			}
		},
		"methodIdentifiers": {
			"echo()": "29f4acb0"
		}
	},
	"abi": [
		{
			"stateMutability": "payable",
			"type": "fallback"
		},
		{
			"inputs": [],
			"name": "echo",
			"outputs": [],
			"stateMutability": "payable",
			"type": "function"
		}
	]
}